{
  "_format": "hh-sol-artifact-1",
  "contractName": "TaskRewardToken",
  "sourceName": "contracts/RewardToken.sol",
  "abi": [
    {
      "inputs": [],
      "stateMutability": "nonpayable",
      "type": "constructor"
    },
    {
      "inputs": [
        {
          "internalType": "address",
          "name": "spender",
          "type": "address"
        },
        {
          "internalType": "uint256",
          "name": "allowance",
          "type": "uint256"
        },
        {
          "internalType": "uint256",
          "name": "needed",
          "type": "uint256"
        }
      ],
      "name": "ERC20InsufficientAllowance",
      "type": "error"
    },
    {
      "inputs": [
        {
          "internalType": "address",
          "name": "sender",
          "type": "address"
        },
        {
          "internalType": "uint256",
          "name": "balance",
          "type": "uint256"
        },
        {
          "internalType": "uint256",
          "name": "needed",
          "type": "uint256"
        }
      ],
      "name": "ERC20InsufficientBalance",
      "type": "error"
    },
    {
      "inputs": [
        {
          "internalType": "address",
          "name": "approver",
          "type": "address"
        }
      ],
      "name": "ERC20InvalidApprover",
      "type": "error"
    },
    {
      "inputs": [
        {
          "internalType": "address",
          "name": "receiver",
          "type": "address"
        }
      ],
      "name": "ERC20InvalidReceiver",
      "type": "error"
    },
    {
      "inputs": [
        {
          "internalType": "address",
          "name": "sender",
          "type": "address"
        }
      ],
      "name": "ERC20InvalidSender",
      "type": "error"
    },
    {
      "inputs": [
        {
          "internalType": "address",
          "name": "spender",
          "type": "address"
        }
      ],
      "name": "ERC20InvalidSpender",
      "type": "error"
    },
    {
      "anonymous": false,
      "inputs": [
        {
          "indexed": true,
          "internalType": "address",
          "name": "owner",
          "type": "address"
        },
        {
          "indexed": true,
          "internalType": "address",
          "name": "spender",
          "type": "address"
        },
        {
          "indexed": false,
          "internalType": "uint256",
          "name": "value",
          "type": "uint256"
        }
      ],
      "name": "Approval",
      "type": "event"
    },
    {
      "anonymous": false,
      "inputs": [
        {
          "indexed": true,
          "internalType": "address",
          "name": "from",
          "type": "address"
        },
        {
          "indexed": true,
          "internalType": "address",
          "name": "to",
          "type": "address"
        },
        {
          "indexed": false,
          "internalType": "uint256",
          "name": "value",
          "type": "uint256"
        }
      ],
      "name": "Transfer",
      "type": "event"
    },
    {
      "inputs": [],
      "name": "MAX_TRANSFER_AMOUNT",
      "outputs": [
        {
          "internalType": "uint256",
          "name": "",
          "type": "uint256"
        }
      ],
      "stateMutability": "view",
      "type": "function"
    },
    {
      "inputs": [],
      "name": "TOKENS_PER_INTERACTION",
      "outputs": [
        {
          "internalType": "uint256",
          "name": "",
          "type": "uint256"
        }
      ],
      "stateMutability": "view",
      "type": "function"
    },
    {
      "inputs": [
        {
          "internalType": "address",
          "name": "owner",
          "type": "address"
        },
        {
          "internalType": "address",
          "name": "spender",
          "type": "address"
        }
      ],
      "name": "allowance",
      "outputs": [
        {
          "internalType": "uint256",
          "name": "",
          "type": "uint256"
        }
      ],
      "stateMutability": "view",
      "type": "function"
    },
    {
      "inputs": [
        {
          "internalType": "address",
          "name": "spender",
          "type": "address"
        },
        {
          "internalType": "uint256",
          "name": "value",
          "type": "uint256"
        }
      ],
      "name": "approve",
      "outputs": [
        {
          "internalType": "bool",
          "name": "",
          "type": "bool"
        }
      ],
      "stateMutability": "nonpayable",
      "type": "function"
    },
    {
      "inputs": [
        {
          "internalType": "address",
          "name": "account",
          "type": "address"
        }
      ],
      "name": "balanceOf",
      "outputs": [
        {
          "internalType": "uint256",
          "name": "",
          "type": "uint256"
        }
      ],
      "stateMutability": "view",
      "type": "function"
    },
    {
      "inputs": [],
      "name": "decimals",
      "outputs": [
        {
          "internalType": "uint8",
          "name": "",
          "type": "uint8"
        }
      ],
      "stateMutability": "view",
      "type": "function"
    },
    {
      "inputs": [],
      "name": "name",
      "outputs": [
        {
          "internalType": "string",
          "name": "",
          "type": "string"
        }
      ],
      "stateMutability": "view",
      "type": "function"
    },
    {
      "inputs": [],
      "name": "owner",
      "outputs": [
        {
          "internalType": "address",
          "name": "",
          "type": "address"
        }
      ],
      "stateMutability": "view",
      "type": "function"
    },
    {
      "inputs": [
        {
          "internalType": "address",
          "name": "employee",
          "type": "address"
        },
        {
          "internalType": "uint256",
          "name": "amount",
          "type": "uint256"
        }
      ],
      "name": "rewardEmployee",
      "outputs": [],
      "stateMutability": "nonpayable",
      "type": "function"
    },
    {
      "inputs": [],
      "name": "symbol",
      "outputs": [
        {
          "internalType": "string",
          "name": "",
          "type": "string"
        }
      ],
      "stateMutability": "view",
      "type": "function"
    },
    {
      "inputs": [],
      "name": "totalSupply",
      "outputs": [
        {
          "internalType": "uint256",
          "name": "",
          "type": "uint256"
        }
      ],
      "stateMutability": "view",
      "type": "function"
    },
    {
      "inputs": [
        {
          "internalType": "address",
          "name": "to",
          "type": "address"
        },
        {
          "internalType": "uint256",
          "name": "value",
          "type": "uint256"
        }
      ],
      "name": "transfer",
      "outputs": [
        {
          "internalType": "bool",
          "name": "",
          "type": "bool"
        }
      ],
      "stateMutability": "nonpayable",
      "type": "function"
    },
    {
      "inputs": [
        {
          "internalType": "address",
          "name": "from",
          "type": "address"
        },
        {
          "internalType": "address",
          "name": "to",
          "type": "address"
        },
        {
          "internalType": "uint256",
          "name": "value",
          "type": "uint256"
        }
      ],
      "name": "transferFrom",
      "outputs": [
        {
          "internalType": "bool",
          "name": "",
          "type": "bool"
        }
      ],
      "stateMutability": "nonpayable",
      "type": "function"
    }
  ],
  "bytecode": "0x60806040523480156200001157600080fd5b506040518060400160405280600f81526020017f5461736b526577617264546f6b656e00000000000000000000000000000000008152506040518060400160405280600381526020017f545254000000000000000000000000000000000000000000000000000000000081525081600390816200008f91906200063d565b508060049081620000a191906200063d565b50505033600560006101000a81548173ffffffffffffffffffffffffffffffffffffffff021916908373ffffffffffffffffffffffffffffffffffffffff1602179055506200010033683635c9adc5dea000006200010660201b60201c565b6200085b565b600073ffffffffffffffffffffffffffffffffffffffff168273ffffffffffffffffffffffffffffffffffffffff16036200017b5760006040517fec442f0500000000000000000000000000000000000000000000000000000000815260040162000172919062000769565b60405180910390fd5b6200018f600083836200019360201b60201c565b5050565b600073ffffffffffffffffffffffffffffffffffffffff168373ffffffffffffffffffffffffffffffffffffffff1603620001e9578060026000828254620001dc9190620007b5565b92505081905550620002bf565b60008060008573ffffffffffffffffffffffffffffffffffffffff1673ffffffffffffffffffffffffffffffffffffffff1681526020019081526020016000205490508181101562000278578381836040517fe450d38c0000000000000000000000000000000000000000000000000000000081526004016200026f9392919062000801565b60405180910390fd5b8181036000808673ffffffffffffffffffffffffffffffffffffffff1673ffffffffffffffffffffffffffffffffffffffff16815260200190815260200160002081905550505b600073ffffffffffffffffffffffffffffffffffffffff168273ffffffffffffffffffffffffffffffffffffffff16036200030a578060026000828254039250508190555062000357565b806000808473ffffffffffffffffffffffffffffffffffffffff1673ffffffffffffffffffffffffffffffffffffffff168152602001908152602001600020600082825401925050819055505b8173ffffffffffffffffffffffffffffffffffffffff168373ffffffffffffffffffffffffffffffffffffffff167fddf252ad1be2c89b69c2b068fc378daa952ba7f163c4a11628f55a4df523b3ef83604051620003b691906200083e565b60405180910390a3505050565b600081519050919050565b7f4e487b7100000000000000000000000000000000000000000000000000000000600052604160045260246000fd5b7f4e487b7100000000000000000000000000000000000000000000000000000000600052602260045260246000fd5b600060028204905060018216806200044557607f821691505b6020821081036200045b576200045a620003fd565b5b50919050565b60008190508160005260206000209050919050565b60006020601f8301049050919050565b600082821b905092915050565b600060088302620004c57fffffffffffffffffffffffffffffffffffffffffffffffffffffffffffffffff8262000486565b620004d1868362000486565b95508019841693508086168417925050509392505050565b6000819050919050565b6000819050919050565b60006200051e620005186200051284620004e9565b620004f3565b620004e9565b9050919050565b6000819050919050565b6200053a83620004fd565b62000552620005498262000525565b84845462000493565b825550505050565b600090565b620005696200055a565b620005768184846200052f565b505050565b5b818110156200059e57620005926000826200055f565b6001810190506200057c565b5050565b601f821115620005ed57620005b78162000461565b620005c28462000476565b81016020851015620005d2578190505b620005ea620005e18562000476565b8301826200057b565b50505b505050565b600082821c905092915050565b60006200061260001984600802620005f2565b1980831691505092915050565b60006200062d8383620005ff565b9150826002028217905092915050565b6200064882620003c3565b67ffffffffffffffff811115620006645762000663620003ce565b5b6200067082546200042c565b6200067d828285620005a2565b600060209050601f831160018114620006b55760008415620006a0578287015190505b620006ac85826200061f565b8655506200071c565b601f198416620006c58662000461565b60005b82811015620006ef57848901518255600182019150602085019450602081019050620006c8565b868310156200070f57848901516200070b601f891682620005ff565b8355505b6001600288020188555050505b505050505050565b600073ffffffffffffffffffffffffffffffffffffffff82169050919050565b6000620007518262000724565b9050919050565b620007638162000744565b82525050565b600060208201905062000780600083018462000758565b92915050565b7f4e487b7100000000000000000000000000000000000000000000000000000000600052601160045260246000fd5b6000620007c282620004e9565b9150620007cf83620004e9565b9250828201905080821115620007ea57620007e962000786565b5b92915050565b620007fb81620004e9565b82525050565b600060608201905062000818600083018662000758565b620008276020830185620007f0565b620008366040830184620007f0565b949350505050565b6000602082019050620008556000830184620007f0565b92915050565b61122c806200086b6000396000f3fe608060405234801561001057600080fd5b50600436106100cf5760003560e01c80638da5cb5b1161008c578063c15abc2311610066578063c15abc231461022a578063c8028e7114610248578063dd62ed3e14610264578063fc1b311314610294576100cf565b80638da5cb5b146101be57806395d89b41146101dc578063a9059cbb146101fa576100cf565b806306fdde03146100d4578063095ea7b3146100f257806318160ddd1461012257806323b872dd14610140578063313ce5671461017057806370a082311461018e575b600080fd5b6100dc6102b2565b6040516100e99190610cf0565b60405180910390f35b61010c60048036038101906101079190610dab565b610344565b6040516101199190610e06565b60405180910390f35b61012a610367565b6040516101379190610e30565b60405180910390f35b61015a60048036038101906101559190610e4b565b610371565b6040516101679190610e06565b60405180910390f35b6101786103a0565b6040516101859190610eba565b60405180910390f35b6101a860048036038101906101a39190610ed5565b6103a9565b6040516101b59190610e30565b60405180910390f35b6101c66103f1565b6040516101d39190610f11565b60405180910390f35b6101e4610417565b6040516101f19190610cf0565b60405180910390f35b610214600480360381019061020f9190610dab565b6104a9565b6040516102219190610e06565b60405180910390f35b6102326104cc565b60405161023f9190610e30565b60405180910390f35b610262600480360381019061025d9190610dab565b6104d9565b005b61027e60048036038101906102799190610f2c565b61062f565b60405161028b9190610e30565b60405180910390f35b61029c6106b6565b6040516102a99190610e30565b60405180910390f35b6060600380546102c190610f9b565b80601f01602080910402602001604051908101604052809291908181526020018280546102ed90610f9b565b801561033a5780601f1061030f5761010080835404028352916020019161033a565b820191906000526020600020905b81548152906001019060200180831161031d57829003601f168201915b5050505050905090565b60008061034f6106c2565b905061035c8185856106ca565b600191505092915050565b6000600254905090565b60008061037c6106c2565b90506103898582856106dc565b610394858585610770565b60019150509392505050565b60006012905090565b60008060008373ffffffffffffffffffffffffffffffffffffffff1673ffffffffffffffffffffffffffffffffffffffff168152602001908152602001600020549050919050565b600560009054906101000a900473ffffffffffffffffffffffffffffffffffffffff1681565b60606004805461042690610f9b565b80601f016020809104026020016040519081016040528092919081815260200182805461045290610f9b565b801561049f5780601f106104745761010080835404028352916020019161049f565b820191906000526020600020905b81548152906001019060200180831161048257829003601f168201915b5050505050905090565b6000806104b46106c2565b90506104c1818585610770565b600191505092915050565b68056bc75e2d6310000081565b600560009054906101000a900473ffffffffffffffffffffffffffffffffffffffff1673ffffffffffffffffffffffffffffffffffffffff163373ffffffffffffffffffffffffffffffffffffffff1614610569576040517f08c379a00000000000000000000000000000000000000000000000000000000081526004016105609061103e565b60405180910390fd5b674563918244f400008111156105b4576040517f08c379a00000000000000000000000000000000000000000000000000000000081526004016105ab906110d0565b60405180910390fd5b806105bd610367565b10156105fe576040517f08c379a00000000000000000000000000000000000000000000000000000000081526004016105f59061113c565b60405180910390fd5b61062b600560009054906101000a900473ffffffffffffffffffffffffffffffffffffffff168383610770565b5050565b6000600160008473ffffffffffffffffffffffffffffffffffffffff1673ffffffffffffffffffffffffffffffffffffffff16815260200190815260200160002060008373ffffffffffffffffffffffffffffffffffffffff1673ffffffffffffffffffffffffffffffffffffffff16815260200190815260200160002054905092915050565b674563918244f4000081565b600033905090565b6106d78383836001610864565b505050565b60006106e8848461062f565b90507fffffffffffffffffffffffffffffffffffffffffffffffffffffffffffffffff811461076a578181101561075a578281836040517ffb8f41b20000000000000000000000000000000000000000000000000000000081526004016107519392919061115c565b60405180910390fd5b61076984848484036000610864565b5b50505050565b600073ffffffffffffffffffffffffffffffffffffffff168373ffffffffffffffffffffffffffffffffffffffff16036107e25760006040517f96c6fd1e0000000000000000000000000000000000000000000000000000000081526004016107d99190610f11565b60405180910390fd5b600073ffffffffffffffffffffffffffffffffffffffff168273ffffffffffffffffffffffffffffffffffffffff16036108545760006040517fec442f0500000000000000000000000000000000000000000000000000000000815260040161084b9190610f11565b60405180910390fd5b61085f838383610a3b565b505050565b600073ffffffffffffffffffffffffffffffffffffffff168473ffffffffffffffffffffffffffffffffffffffff16036108d65760006040517fe602df050000000000000000000000000000000000000000000000000000000081526004016108cd9190610f11565b60405180910390fd5b600073ffffffffffffffffffffffffffffffffffffffff168373ffffffffffffffffffffffffffffffffffffffff16036109485760006040517f94280d6200000000000000000000000000000000000000000000000000000000815260040161093f9190610f11565b60405180910390fd5b81600160008673ffffffffffffffffffffffffffffffffffffffff1673ffffffffffffffffffffffffffffffffffffffff16815260200190815260200160002060008573ffffffffffffffffffffffffffffffffffffffff1673ffffffffffffffffffffffffffffffffffffffff168152602001908152602001600020819055508015610a35578273ffffffffffffffffffffffffffffffffffffffff168473ffffffffffffffffffffffffffffffffffffffff167f8c5be1e5ebec7d5bd14f71427d1e84f3dd0314c0f7b2291e5b200ac8c7c3b92584604051610a2c9190610e30565b60405180910390a35b50505050565b600073ffffffffffffffffffffffffffffffffffffffff168373ffffffffffffffffffffffffffffffffffffffff1603610a8d578060026000828254610a8191906111c2565b92505081905550610b60565b60008060008573ffffffffffffffffffffffffffffffffffffffff1673ffffffffffffffffffffffffffffffffffffffff16815260200190815260200160002054905081811015610b19578381836040517fe450d38c000000000000000000000000000000000000000000000000000000008152600401610b109392919061115c565b60405180910390fd5b8181036000808673ffffffffffffffffffffffffffffffffffffffff1673ffffffffffffffffffffffffffffffffffffffff16815260200190815260200160002081905550505b600073ffffffffffffffffffffffffffffffffffffffff168273ffffffffffffffffffffffffffffffffffffffff1603610ba95780600260008282540392505081905550610bf6565b806000808473ffffffffffffffffffffffffffffffffffffffff1673ffffffffffffffffffffffffffffffffffffffff168152602001908152602001600020600082825401925050819055505b8173ffffffffffffffffffffffffffffffffffffffff168373ffffffffffffffffffffffffffffffffffffffff167fddf252ad1be2c89b69c2b068fc378daa952ba7f163c4a11628f55a4df523b3ef83604051610c539190610e30565b60405180910390a3505050565b600081519050919050565b600082825260208201905092915050565b60005b83811015610c9a578082015181840152602081019050610c7f565b60008484015250505050565b6000601f19601f8301169050919050565b6000610cc282610c60565b610ccc8185610c6b565b9350610cdc818560208601610c7c565b610ce581610ca6565b840191505092915050565b60006020820190508181036000830152610d0a8184610cb7565b905092915050565b600080fd5b600073ffffffffffffffffffffffffffffffffffffffff82169050919050565b6000610d4282610d17565b9050919050565b610d5281610d37565b8114610d5d57600080fd5b50565b600081359050610d6f81610d49565b92915050565b6000819050919050565b610d8881610d75565b8114610d9357600080fd5b50565b600081359050610da581610d7f565b92915050565b60008060408385031215610dc257610dc1610d12565b5b6000610dd085828601610d60565b9250506020610de185828601610d96565b9150509250929050565b60008115159050919050565b610e0081610deb565b82525050565b6000602082019050610e1b6000830184610df7565b92915050565b610e2a81610d75565b82525050565b6000602082019050610e456000830184610e21565b92915050565b600080600060608486031215610e6457610e63610d12565b5b6000610e7286828701610d60565b9350506020610e8386828701610d60565b9250506040610e9486828701610d96565b9150509250925092565b600060ff82169050919050565b610eb481610e9e565b82525050565b6000602082019050610ecf6000830184610eab565b92915050565b600060208284031215610eeb57610eea610d12565b5b6000610ef984828501610d60565b91505092915050565b610f0b81610d37565b82525050565b6000602082019050610f266000830184610f02565b92915050565b60008060408385031215610f4357610f42610d12565b5b6000610f5185828601610d60565b9250506020610f6285828601610d60565b9150509250929050565b7f4e487b7100000000000000000000000000000000000000000000000000000000600052602260045260246000fd5b60006002820490506001821680610fb357607f821691505b602082108103610fc657610fc5610f6c565b5b50919050565b7f4f6e6c7920746865206f776e65722063616e2063616c6c20746869732066756e60008201527f6374696f6e000000000000000000000000000000000000000000000000000000602082015250565b6000611028602583610c6b565b915061103382610fcc565b604082019050919050565b600060208201905081810360008301526110578161101b565b9050919050565b7f43616e6e6f74207472616e73666572206d6f7265207468616e203520746f6b6560008201527f6e73000000000000000000000000000000000000000000000000000000000000602082015250565b60006110ba602283610c6b565b91506110c58261105e565b604082019050919050565b600060208201905081810360008301526110e9816110ad565b9050919050565b7f496e73756666696369656e742062616c616e6365000000000000000000000000600082015250565b6000611126601483610c6b565b9150611131826110f0565b602082019050919050565b6000602082019050818103600083015261115581611119565b9050919050565b60006060820190506111716000830186610f02565b61117e6020830185610e21565b61118b6040830184610e21565b949350505050565b7f4e487b7100000000000000000000000000000000000000000000000000000000600052601160045260246000fd5b60006111cd82610d75565b91506111d883610d75565b92508282019050808211156111f0576111ef611193565b5b9291505056fea2646970667358221220087ac4d7407e120a1f386ef01f378adc8726ac0d912250bec800d75437bb2f2e64736f6c63430008140033",
  "linkReferences": {},
  "deployedLinkReferences": {}
}